:020000040800F2
:10000000D00D0020C1040008C5040008C704000882
:10001000C9040008CB040008CD040008000000005B
:10002000000000000000000000000000CF040008F5
:10003000D104000800000000D3040008D504000823
:10004000D7040008D7040008D7040008D704000824
:10005000D7040008D7040008D7040008D704000814
:10006000D7040008D7040008D7040008D704000804
:10007000D7040008D7040008D7040008D7040008F4
:10008000D7040008D7040008D7040008D7040008E4
:10009000D7040008D7040008D7040008D7040008D4
:1000A000D7040008D7040008D7040008D7040008C4
:1000B000D7040008D7040008D7040008D7040008B4
:1000C000D7040008D7040008D7040008FD01000881
:1000D000D7040008D7040008D7040008D704000894
:1000E000D7040008D7040008D704000800F002F87D
:1000F00000F063F80AA090E8000C82448344AAF15F
:100100000107DA4501D100F058F8AFF2090EBAE85C
:100110000F0013F0010F18BFFB1A43F0010318473B
:100120005C2200007C2200000A444FF0000C10F812
:10013000013B13F0070408BF10F8014B1D1108BF65
:1001400010F8015B641E05D010F8016B641E01F805
:10015000016BF9D113F0080F1EBF10F8014BAD1C55
:100160000C1B09D16D1E58BF01F801CBFAD505E073
:1001700014F8016B01F8016B6D1EF9D59142D6D3CD
:10018000704700000023002400250026103A28BFF5
:1001900078C1FBD8520728BF30C148BF0B607047F9
:1001A0001FB59DE8030001F05BFF01F027FF1FBDB5
:1001B00010B5002002F06FF810BD01F0D5FF114618
:1001C000FFF7EEFF00F05CFD01F0F3FF03B4FFF773
:1001D000EFFF03BC02F020F8014644F2506201FB3D
:1001E00002F000E0401E1428FCD8704700EBC0026B
:1001F000510000E0491E1429FCD8704710B5A848EA
:10020000008900F0010018B1A6480068804707E0A7
:10021000A348008900F0100010B10020A049088117
:1002200010BD01460020012201E09200401C8A42DC
:10023000FBD370472DE9F04704460D4616461F468E
:10024000DDE908989848806940F4805096498861B3
:100250000846C06840F48050C86000BF0846806906
:1002600040F0040088619148006840F400408F49E4
:1002700008608E480C38006820F040408B490C39EB
:1002800008600846006820F0405008600846006892
:1002900040F00040086000BF00BF8348806940F024
:1002A0000800814988618248006840F00800804960
:1002B00008607F481038006820F440407C491039BD
:1002C00008600846006820F440500860084600684E
:1002D00040F40040086000BF00BF7348806940F0F0
:1002E0000800714988617248006840F01000704948
:1002F00008606F481038006820F440206C491039BD
:1003000008600846006840F400200860084600685D
:1003100040F44030086000BF00BF6348806940F08F
:100320000800614988616248006840F02000604927
:1003300008605F481038006820F440005C491039BC
:1003400008600846006820F440100860084600680D
:1003500040F40000086000BF0A20FFF747FF524842
:10036000C06820F480505049C8604D48008840F46F
:1003700010704B49088025B10846008840F0040001
:1003800008802EB94648008840F080004449088023
:100390002FB94348008840F0020041490880B9F174
:1003A000000F05D13E48008840F001003C4908801C
:1003B0002046FFF736FF00F007040CB1601EC4B200
:1003C0003748008840EAC40035490880B8F1000F7A
:1003D00019D03448C0F800800846808840F060009A
:1003E00088800221334801703348006840F00801DA
:1003F000314801603148006840F008004FF0E021CA
:10040000C1F8040102E0002026490860BDE8F08739
:1004100000BF2348008900F080000028F9D120485F
:10042000808820F060001E498880704700BF1C480B
:10043000008900F080000028F9D11948808840F038
:10044000600017498880704701461548008900F010
:10045000010020B1124880890870012070470020F7
:10046000FCE70F498989C8B2704701460C4A91815F
:1004700000BF0B4A128902F08002002AF9D1084A13
:100480009289D0B270470648008840F480700449D1
:1004900008800846008820F48070088070470000BB
:1004A0000030014000000020001002401008014010
:1004B000100C014023E400E084E200E004E100E0ED
:1004C00008480047FEE7FEE7FEE7FEE7FEE7FEE737
:1004D000FEE7FEE7FEE7FEE703480449044A054B52
:1004E00070470000ED000008D0070020D00D00206C
:1004F000D0090020D009002038B5FFF7B2FF04462C
:100500002146FE4801F006FF04E09DF80010FB487C
:1005100001F000FF6846FFF797FF0028F5D138BDCE
:100520008320F7490860002048604FF41F0088606E
:100530004FF0FF30C86008611420486100208861D6
:10054000C8614FF0807008620846006840F41020CF
:10055000086000BFEA48006800F400300028F9D0C5
:10056000E848006820F01F00E64908600846006877
:1005700040F012000860E2484068E3490843E0495F
:1005800048600846006840F08070086000BFDC48A2
:10059000006800F000700028F9D0D948406840F0A9
:1005A0000200D749486000BFD548406800F00C0001
:1005B0000828F9D10020D249C8600861704710B5F9
:1005C000CF48C06840F00100CD49C8600A20FFF75D
:1005D0000DFECB48C06820F00100C949C8600A2060
:1005E000FFF704FEC648806940F00100C4498861F5
:1005F0000A20FFF7FBFDC548C549486010BD10B58E
:10060000BF48C06840F03C00BD49C8600A20FFF701
:10061000EDFDBB48C06820F03C00B949C86000BF90
:100620000846806940F008008861BA48006840F4D4
:100630008040B8490860B7480C38006820F0406036
:10064000B4490C3908600846006840F04070086002
:1006500000BF00BFAA48806940F00800A84988612F
:10066000AC48006840F40040AA490860A9480C382A
:10067000006820F04040A7490C390860084600682F
:1006800040F04050086000BF00BF9D48806940F0C6
:1006900008009B4988619F48006840F002009D491E
:1006A00008609C481038006820F0C0009949103953
:1006B00008600846006840F080000860084600684E
:1006C00040F03000086000BF00BF8D48806940F0F6
:1006D00008008B4988618F48006840F001008D490F
:1006E00008608C481038006820F00C0089491039E7
:1006F00008600846006840F0080008600846006886
:1007000040F00300086000BF00BF7D48806940F0F2
:1007100004007B4988618048006840F080007E4981
:1007200008607D481038006820F040407A49103950
:1007300008600846006840F000400860084600680D
:1007400040F04050086000BF00BF6D48806940F035
:1007500004006B4988617048006840F010006E49E1
:1007600008606D481038006820F440206A4910394C
:1007700008600846006840F44030086000BF00BFD1
:100780005F48806940F004005D4988616248006804
:1007900040F02000604908605F481038006820F48D
:1007A00040005D49103908600846006840F4401078
:1007B000086000BF00BF5248806940F00400504903
:1007C00088615548006840F040005349086052482D
:1007D0001038006820F040604F4910390860084622
:1007E000006840F0006008600846006840F0407013
:1007F000086000BF00BF4248806940F004004049E3
:1008000088614548006840F001004349086042485B
:100810001038006820F00C003F4910390860084685
:10082000006840F0080008600846006840F00300D7
:10083000086000BF00BF3248806940F004003049C2
:1008400088613548006840F002003349086032484A
:100850001038006820F0C0002F49103908600846A1
:10086000006840F0800008600846006840F03000F2
:10087000086000BF00BF2248806940F004002049A2
:1008800088612548006840F0080023490860224834
:100890001038006820F440401F49103908600846AD
:1008A000006840F4004008600846006840F440508A
:1008B000086000BF00BF1248806940F00400104982
:1008C00088611548006840F0040013490860124828
:1008D0001038006820F440600F491039086008465D
:1008E000006840F4006008600846006840F440700A
:1008F000086000BF00BF024880690FE04C0600207E
:10090000001002400020024000041D00010000020F
:1009100000000140100C01401008014040F01000A0
:10092000F8498861F848006940F40050F6490861C8
:100930000846406820F4400048600846406840F49B
:100940004010486000BF00BFEE48806940F01000D2
:10095000EC498861EC48006940F48040EA4908614C
:100960000846406820F0406048600846406840F013
:100970004070486000BF00BFE248806940F010004E
:10098000E0498861E048006940F40040DE490861C0
:100990000846406820F0404048600846406840F003
:1009A0004050486000BF00BFD648806940F0080052
:1009B000D4498861D548006840F40050D3490860A4
:1009C000D2480C38006820F44000D0490C39086047
:1009D0000846006840F44010086000BF00BFC948E6
:1009E000806940F00400C7498861C948006840F444
:1009F0008050C7490860C6480C38006820F4402081
:100A0000C3490C3908600846006840F4403008606B
:100A100000BF00BFBB48806940F00400B94988614D
:100A2000BB48006840F40060B9490860B8480C3819
:100A3000006820F44040B6490C3908600846006858
:100A400040F4004008600846006840F440500860E8
:100A500000BF00BFAB48806940F00400A94988612D
:100A6000AB48006840F48060A9490860A8480C3889
:100A7000006820F44060A6490C3908600846006808
:100A800040F4006008600846006840F44070086068
:100A900000BF00BF9B48806940F00400994988610D
:100AA0009B48006840F400709949086098480C38E9
:100AB000006820F0C00096490C39086008460068BC
:100AC00040F0800008600846006840F03000086090
:100AD00000BF00BF8B48806940F0040089498861ED
:100AE0008B48006840F480708949086088480C3859
:100AF000006820F00C0086490C3908600846006840
:100B000040F0080008600846006840F003000860F4
:100B100000BF00BF7B48806940F0080079498861C8
:100B20007A48006840F480507849086077480C386B
:100B3000006820F4402075490C39086008460068B8
:100B400040F44030086000BF00BF6E48806940F04C
:100B500008006C4988616D48006840F480706B49FA
:100B600008606A480C38006820F00C0067490C39AE
:100B700008600846006840F0080008600846006801
:100B800040F00300086000BF00BF5E48806940F08D
:100B900008005C4988615D48006840F080005B495E
:100BA00008605A481038006820F040405749103912
:100BB00008600846006840F0004008600846006889
:100BC00040F04050086000BF00BF4E48806940F0D0
:100BD00008004C4988614D48006840F400704B495A
:100BE00008604A480C38006820F0C00047490C39BA
:100BF00008600846006840F0800008600846006809
:100C000040F03000086000BF00BF3E48806940F0FF
:100C100008003C4988613D48006840F040003B497D
:100C200008603A481038006820F0406037491039B1
:100C300008600846006840F00060086008460068E8
:100C400040F04070086000BF00BF2E48806940F04F
:100C500008002C4988612D48006840F004002B49A9
:100C600008602A481038006820F44060274910398D
:100C700008600846006840F44070086000BF10BD7E
:100C800086B0FFF74DFCFFF79AFCFFF7B8FC002594
:100C9000002004904FF480621E491F4801F05EFB63
:100CA0000020029003904FF480611A4801F07BF914
:100CB000AFF2BB7001210B460A46CDE900100021BE
:100CC0000220FFF7B7FAA846AA46AB4600200590D7
:100CD00000274FF4FA7332220121104800F0C4F9C2
:100CE000A9460F480688C1E00D480488A64227D0CF
:100CF000A64217D90A48083000882044801B00EB20
:100D00000B0A14E00010024000100140100C0140DA
:100D1000100801404C0200204C0600206406002010
:100D2000242C0140A64202D2A01B00EB0B0A0A2091
:100D3000BAFBF0F100FB11ABBAFBF0F080442646A1
:100D4000B8F1000F10D041464E4800F03CF94FF08A
:100D50000008B9F1020F07D142F2107104988842DD
:100D600002D20498401C0490B9F1050F75D2DFE857
:100D700009F0030B1B3A730002A9434801F0ACFAD7
:100D800008B14FF0010970E09DF80800872806D1EE
:100D900001279DF8080005904FF0020903E0FFF7D6
:100DA00072FB4FF0000960E002A8C119364801F05B
:100DB00093FAB8B102A8C15D05980844C0B2059085
:100DC000781CC0B2074606280CD1781E02A9085C20
:100DD0000599A1EB4000C0B210B14FF0040901E049
:100DE0004FF0030941E09DF80A509DF809000128E1
:100DF00006D0022813D003281AD0042826D11EE0DA
:100E00009DF80B0000F0010020B1204951F82500A9
:100E1000804703E01E4951F82500804717E09DF800
:100E20000B2002F001001B4A52F8251088470EE003
:100E3000BDF80B00184A52F82510884707E0BDF8A6
:100E40000B00164A52F82510884700E000BF00BF8B
:100E50004FF0000909E000E000BF0B4801F074FA10
:100E6000FFF711FB4FF0000900BF00BF3CE710B5D2
:100E7000054801F078FA0446094A0A4901F0F2F9F6
:100E800010BD0000A40600204C0600203000002009
:100E90009C000020E00100200801002074010020D7
:100EA00000000008792300082DE9F05F05460F4691
:100EB00016469846DDF828A06948B0FBF8F01FFAFE
:100EC00080F909FB0AF042F21071B0FBF1F01FFA51
:100ED00080FB00241DE0002045F82400002105F1DE
:100EE000580020F814102C3820F81490163020F8F0
:100EF00014B02E3040F8246057F824102C3040F8FD
:100F00002410F0B205F19C0252F824108847601CAE
:100F1000C4B20B2CDFDB2846BDE8F09F704770B5EC
:100F200004460D46002104F1580020F8151004F184
:100F3000700212F825002C3252F82510884770BD37
:100F4000012240F82120704770B505460C4600206C
:100F500045F8240021462846FFF7E1FF70BD30B573
:100F600000F12C0434F81140544342F21075B4FBE4
:100F7000F5F4A3B200F1420424F8113030BD10B5ED
:100F8000374CB4FBF2F4A3B200F12C0424F8113076
:100F900010BD70B506460C46154606F1700040F8C7
:100FA000245021463046FFF7BAFF70BD70B50646A3
:100FB0000C46154621463046FFF7B1FF06F19C006E
:100FC00040F8245070BD70B505460E46002443E03D
:100FD00055F8240000B93DE005F1580030F8141030
:100FE000163830F8140081421CDB05F1580030F847
:100FF0001400304481B205F1580020F8141030F884
:1010000014102C3830F81400814222DB05F19C00CA
:1010100050F8241002208847002105F1580020F8DC
:10102000141016E005F1580030F81400304481B275
:1010300005F1580020F8141030F81410163830F864
:101040001400814205DB05F19C0050F824100220B9
:10105000884700BF601CC4B20B2CB9DB70BD000018
:10106000400D0300704770472DE9F04105460E46DC
:1010700017469846FC48806940F40060FA49886148
:101080000846C06940F00700C8610846006940F0A2
:10109000070008610846C06840F40060C8600A2084
:1010A000FFF7A4F8F048006920F00700EE49086156
:1010B0000846C06820F40060C860002404E0EB48E3
:1010C00045F82400601CC4B2042CF8DB0020E7497A
:1010D0000C3108802320E54928310880E44890FB42
:1010E000F7F0091D088016B142F2222000E000202E
:1010F000DE49203108800020DC491031088084203E
:10110000DA49088047F67800D84918310880091D67
:101110000880D6482C30008800FB08F042F210719D
:10112000B0FBF1F0D1493431088008460088091D30
:101130000880081F0088091D0880CC4834300088CA
:10114000091D08804FF40040091D088005E04FF09C
:10115000804045F82400601CC4B2082CF7DB002056
:101160004FF08041888123200885C14890FBF7F02B
:10117000888516B142F2222000E000204FF0804125
:101180000884002008828420088047F678000883BD
:1011900088830846808D00FB08F042F21071B0FB96
:1011A000F1F0890688860846808E08870846808E7A
:1011B00088870846808EAF49088004E0AE4845F82D
:1011C0002400601CC4B20C2CF8DB0020AA490C31AE
:1011D00008802320A84928310880A54890FBF7F013
:1011E000091D088016B142F2222000E00020A24929
:1011F000203108800020A0491031088084209E49B9
:10120000088047F678009C4918310880091D08803D
:1012100099482C30008800FB08F042F21071B0FBB6
:10122000F1F095493431088008460088091D08808E
:10123000081F0088091D08808F4834300088091D68
:10124000088004E08D4845F82400601CC4B2102CCE
:10125000F8DB002089490C31088023208749283198
:101260000880834890FBF7F0091D088016B142F210
:10127000222000E0002081492031088000207F49A1
:101280001031088084207D49088047F678007B492A
:1012900018310880091D088078482C30008800FB30
:1012A00008F042F21071B0FBF1F07449343108805B
:1012B00008460088091D0880081F0088091D08804D
:1012C0006E4834300088091D08806848008840F066
:1012D0000100664908804FF08040008840F001001E
:1012E0004FF0804108806448008840F00100624966
:1012F00008806248008840F00100604908805B482F
:101300001430008840F00100584914310880080763
:10131000808A40F00100090788825748143000880D
:1013200040F00100544914310880544814300088BA
:1013300040F00100514914310880BDE8F08110B53A
:1013400002460846CB1701EB93739B10A1EB830376
:101350009C000123A34052F82140248C234352F8DF
:101360002140238410BD10B502460846CB1701EB7F
:1013700093739B10A1EB83039C006FF00103A340C8
:1013800052F82140248C234052F82140238410BD80
:1013900010B50B46CC1701EB9474A410A1EB840498
:1013A00034B1012C10D0022C1AD0032C31D123E0FF
:1013B00050F821309B8D534342F21074B3FBF4F389
:1013C00050F82140A38625E050F821309B8D5343EF
:1013D00042F21074B3FBF4F350F82140238719E074
:1013E00050F821309B8D534342F21074B3FBF4F359
:1013F00050F82140A3870DE050F821309B8D5343D6
:1014000042F21074B3FBF4F350F82140A4F84030DA
:1014100000E000BF00BF50F821309B8A43F0010379
:1014200050F82140A38210BD10B5114B93FBF2F38D
:1014300050F82140A38550F821309B8A43F00103E6
:1014400050F82140A38210BD10B50B46CC1701EB1C
:101450009474A410A1EB840494B1012C19D0022C33
:1014600020D0032C30D126E000100240002C014097
:1014700080841E004000004000040040000800403E
:1014800050F8213020334FF0844404EB43135A606A
:101490001BE050F8213020334FF0844404EB431319
:1014A0005A6112E050F8213020334FF0844404EBAD
:1014B00043135A6209E050F8213020334FF084443E
:1014C00004EB43135A6300E000BF00BF50F8213023
:1014D0009B8A43F0010350F82140A38210BD000015
:1014E00010B50021F848FFF72BFD10BD10B5012104
:1014F000F548FFF725FD10BD10B50B21F348FFF7A8
:101500001EFF10BD10B50A21F048FFF718FF10BDEF
:1015100010B50921ED48FFF712FF10BD10B50221EB
:10152000E948FFF70DFD10BD10B50321E648FFF7B0
:1015300007FD10BD10B50821E448FFF700FF10BDFE
:1015400010B50421E148FFF7FAFE10BD10B50521E2
:10155000DE48FFF7F4FE10BD10B50721DB48FFF7AA
:10156000EEFE10BD10B50621D848FFF7E8FE10BD0D
:1015700010B50421D448FFF7E3FC10BD10B50521D8
:10158000D148FFF7DDFC10BD10B50621CE48FFF7AE
:10159000D7FC10BD10B50721CB48FFF7D1FC10BD1B
:1015A00010B50821C848FFF7CBFC10BD10B50321CA
:1015B000C648FFF7C4FE10BD10B50221C348FFF7AF
:1015C000BEFE10BD10B50121C048FFF7B8FE10BD2A
:1015D00010B50021BD48FFF7B2FE10BD10B50921BE
:1015E000B948FFF7ADFC10BD10B50E21B748FFF7A5
:1015F000A6FE10BD10B50D21B448FFF7A0FE10BD2A
:1016000010B50F21B148FFF79AFE10BD10B50C219F
:10161000AE48FFF794FE10BD10B50A21AA48FFF7A7
:101620008FFC10BD10B50021A748FFF78DFC10BD41
:1016300010B50121A448FFF787FC10BD10B50B21A0
:10164000A248FFF790FE10BD10B50A219F48FFF792
:101650008AFE10BD10B509219C48FFF784FE10BD1D
:1016600010B502219848FFF76FFC10BD10B503219B
:101670009548FFF769FC10BD10B508219348FFF7A6
:1016800072FE10BD10B504219048FFF76CFE10BD2E
:1016900010B505218D48FFF766FE10BD10B5072176
:1016A0008A48FFF760FE10BD10B506218748FFF796
:1016B0005AFE10BD10B504218348FFF745FC10BD4C
:1016C00010B505218048FFF73FFC10BD10B506217D
:1016D0007D48FFF739FC10BD10B507217A48FFF7A8
:1016E00033FC10BD10B508217748FFF72DFC10BD65
:1016F00010B503217548FFF736FE10BD10B5022165
:101700007248FFF730FE10BD10B501216F48FFF79A
:101710002AFE10BD10B500216C48FFF724FE10BD55
:1017200010B509216848FFF70FFC10BD10B50E2158
:101730006648FFF718FE10BD10B50D216348FFF78E
:1017400012FE10BD10B50F216048FFF70CFE10BD52
:1017500010B50C215D48FFF706FE10BD10B50A213B
:101760005948FFF7F1FB10BD10B504462246002191
:101770005548FFF704FC10BD10B504462246012170
:101780005148FFF7FCFB10BD10B5044622460B2163
:101790004E48FFF749FE10BD10B5044622460A2107
:1017A0004A48FFF741FE10BD10B504462246092104
:1017B0004648FFF739FE10BD10B504462246022107
:1017C0004148FFF7DCFB10BD10B50446224603215B
:1017D0003D48FFF7D4FB10BD10B504462246082152
:1017E0003A48FFF721FE10BD10B5044622460421F9
:1017F0003648FFF719FE10BD10B5044622460521F4
:101800003248FFF711FE10BD10B5044622460721ED
:101810002E48FFF709FE10BD10B5044622460621EA
:101820002A48FFF701FE10BD10B5044622460421E8
:101830002548FFF7A4FB10BD10B50446224605213C
:101840002148FFF79CFB10BD10B504462246062137
:101850001D48FFF794FB10BD10B504462246072132
:101860001948FFF78CFB10BD10B50446224608212D
:101870001548FFF784FB10BD10B50446224603212E
:101880001248FFF7D1FD10BD10B5044622460221D3
:101890000E48FFF7C9FD10BD10B5044622460121D0
:1018A0000A48FFF7C1FD10BD10B5044622460021CD
:1018B0000648FFF7B9FD10BD10B5044622460921C0
:1018C0000148FFF75CFB10BDA40600206406002061
:1018D00010B5044622460E21F848FFF7A5FD10BDBD
:1018E00010B5044622460D21F448FFF79DFD10BDBA
:1018F00010B5044622460F21F048FFF795FD10BDB4
:1019000010B5044622460C21EC48FFF78DFD10BDB2
:1019100010B5044622460A21E948FFF730FB10BD06
:1019200010B5044622460021E548FFF718FB10BD1C
:1019300010B5044622460121E148FFF710FB10BD17
:1019400010B5044622460B21DC48FFF721FD10BDEF
:1019500010B5044622460A21D848FFF719FD10BDEC
:1019600010B5044622460921D448FFF711FD10BDE9
:1019700010B5044622460221D148FFF7F0FA10BD07
:1019800010B5044622460321CD48FFF7E8FA10BD02
:1019900010B5044622460821C848FFF7F9FC10BDDF
:1019A00010B5044622460421C448FFF7F1FC10BDDF
:1019B00010B5044622460521C048FFF7E9FC10BDDA
:1019C00010B5044622460721BC48FFF7E1FC10BDD4
:1019D00010B5044622460621B848FFF7D9FC10BDD1
:1019E00010B5044622460421B548FFF7B8FA10BDE9
:1019F00010B5044622460521B148FFF7B0FA10BDE4
:101A000010B5044622460621AD48FFF7A8FA10BDDE
:101A100010B5044622460721A948FFF7A0FA10BDD9
:101A200010B5044622460821A548FFF798FA10BDD4
:101A300010B5044622460321A048FFF7A9FC10BDBB
:101A400010B50446224602219C48FFF7A1FC10BDB8
:101A500010B50446224601219848FFF799FC10BDB5
:101A600010B50446224600219448FFF791FC10BDB2
:101A700010B50446224609219148FFF770FA10BDBF
:101A800010B5044622460E218C48FFF781FC10BD9C
:101A900010B5044622460D218848FFF779FC10BD99
:101AA00010B5044622460F218448FFF771FC10BD93
:101AB00010B5044622460C218048FFF769FC10BD92
:101AC00010B5044622460A217D48FFF748FA10BDAA
:101AD00010B50446224600217948FFF75AFA10BD96
:101AE00010B50446224601217548FFF752FA10BD91
:101AF00010B5044622460B217048FFF7A5FC10BD27
:101B000010B5044622460A216C48FFF79DFC10BD23
:101B100010B50446224609216848FFF795FC10BD20
:101B200010B50446224602216548FFF732FA10BD7F
:101B300010B50446224603216148FFF72AFA10BD7A
:101B400010B50446224608215C48FFF77DFC10BD15
:101B500010B50446224604215848FFF775FC10BD15
:101B600010B50446224605215448FFF76DFC10BD10
:101B700010B50446224607215048FFF765FC10BD0A
:101B800010B50446224606214C48FFF75DFC10BD07
:101B900010B50446224604214948FFF7FAF910BD62
:101BA00010B50446224605214548FFF7F2F910BD5D
:101BB00010B50446224606214148FFF7EAF910BD58
:101BC00010B50446224607213D48FFF7E2F910BD53
:101BD00010B50446224608213948FFF7DAF910BD4E
:101BE00010B50446224603213448FFF72DFC10BDF2
:101BF00010B50446224602213048FFF725FC10BDEF
:101C000010B50446224601212C48FFF71DFC10BDEB
:101C100010B50446224600212848FFF715FC10BDE8
:101C200010B50446224609212548FFF7B2F910BD38
:101C300010B5044622460E212048FFF705FC10BDD2
:101C400010B5044622460D211C48FFF7FDFB10BDD0
:101C500010B5044622460F211848FFF7F5FB10BDCA
:101C600010B5044622460C211448FFF7EDFB10BDC9
:101C700010B5044622460A211148FFF78AF910BD23
:101C8000022806D10F49096881F480410D4A11608C
:101C900012E0012808D10B49091D096841F480416F
:101CA000084A121D116007E006490831096841F42D
:101CB0008041044A08321160704700006406002029
:101CC000A40600200C0C0140022806D195490968A1
:101CD00081F40041934A116012E0012808D1914932
:101CE000091D096841F400418E4A121D116007E088
:101CF0008C490831096841F400418A4A0832116070
:101D00007047022806D18849096881F01001864A87
:101D1000116012E0012808D18349091D096841F0CA
:101D20001001814A121D116007E07F4908310968DE
:101D300041F010017C4A083211607047022806D138
:101D40007949096881F02001774A116012E0012881
:101D500008D17549091D096841F02001724A121D18
:101D6000116007E070490831096841F020016E4AAE
:101D7000083211607047022806D16C49C96881F4A5
:101D800000516A4AD1600EE0012806D1674909690D
:101D900041F40051654A116105E06449496941F423
:101DA0000051624A51617047022806D15F49C968F3
:101DB00081F480415D4AD1600EE0012806D15B4983
:101DC000096941F48041594A116105E0574949695F
:101DD00041F48041554A51617047022806D1534968
:101DE000C96881F40041514AD1600EE0012806D152
:101DF0004E49096941F400414C4A116105E04B49E3
:101E0000496941F40041494A51617047022806D1AD
:101E10004449096881F40051424A116012E00128E6
:101E200008D14049091D096841F400513D4A121D7D
:101E3000116007E03B490831096841F40051394A13
:101E4000083211607047022806D13749096881F4C9
:101E50008051354A116012E0012808D13249091D2C
:101E6000096841F48051304A121D116007E02E4983
:101E70000831096841F480512B4A083211607047DB
:101E8000022806D12749096881F48051254A11604A
:101E900012E0012808D12349091D096841F4805145
:101EA000204A121D116007E01E490831096841F4FB
:101EB00080511C4A083211607047022806D1194926
:101EC000096881F00401174A116012E0012808D165
:101ED0001449091D096841F00401124A121D1160DC
:101EE00007E010490831096841F004010D4A083241
:101EF0001160704738B50E48FFF7B4F804460D4A34
:101F00000D4900F0AFF94FF4FA70322301220B496A
:101F100000900B48FEF7C8FF0446064A094900F046
:101F2000A1F938BD0C0C01400C0801400010014023
:101F3000640600200000000867100008040000206C
:101F4000A40600201D0F000870B5064600F068F8D2
:101F5000056806F10B0020F00704B4429CBF002086
:101F600070BD2B466A68BAB11068A04210D304F164
:101F7000080188423CBF5068586007D35168101967
:101F800041601168091B016058601460101D70BD2C
:101F900013465268002AE7D12146284600F04CF843
:101FA0000028DED170BD4FF0000200B51346944604
:101FB0009646203922BFA0E80C50A0E80C50B1F1A1
:101FC0002001BFF4F7AF090728BFA0E80C5048BFB5
:101FD0000CC05DF804EB890028BF40F8042B08BF53
:101FE000704748BF20F8022B11F0804F18BF00F84F
:101FF000012B7047704770477047000070B5064C62
:102000007C44064D7D4403E0206820448047241D25
:10201000AC42F9D170BD0000980300009C030000A1
:10202000004870477407002000487047A40700204C
:10203000704770477047704738B504460A4600201D
:102040006946AFF30080002808BF38BD02460099FA
:10205000204600F067F8012038BD012000F07CB870
:10206000F8B5AFF30080054600200C46102000BFF5
:102070000646A819A0420DD9324669460020AFF3A2
:102080000080070008BF00F067F80098A04218BF62
:102090000546C419FFF7C4FF05600746F01D20F090
:1020A00007004619284600F00AF8B44208BFF8BDF8
:1020B000A21B31463868BDE8F84000F033B8002173
:1020C0000160C0E9011070471020704770B50446E8
:1020D000051FFFF7A5FF0068002C14BF446870BD02
:1020E000002C18BFAC423CBF20466468F8D301689E
:1020F0000A18AA4218BF456003D12A680546114450
:10210000016028684119A1421CBF6C6070BD616804
:10211000696021680844286070BD0000004870476D
:102120006C070020034640688C46002818BF884290
:102130003CBF03464068F8D318681844884207D06B
:102140000CF1030020F00700001D411A521A01464D
:10215000081D0A60FFF7BABF10B500F035F8BDE8FA
:10216000104000F02CB870477546FFF7D7FFAE4619
:1021700005006946534620F00700854618B020B593
:10218000FEF7AAF9BDE820404FF000064FF0000727
:102190004FF000084FF0000B21F00701AC46ACE80F
:1021A000C009ACE8C009ACE8C009ACE8C0098D467C
:1021B00070470446AFF300802046FEF707F800287A
:1021C00001D000F029B8704710B5012805D00021D2
:1021D00003A000F027F8012010BD09A1F8E70000D6
:1021E00053494752544D454D3A204F7574206F6600
:1021F0002068656170206D656D6F72790000000068
:102200003A2048656170206D656D6F727920636F4B
:10221000727275707465640001491820ABBEFEE7E8
:102220002600020070B505460C460A2000E06D1C31
:1022300000F011F835B128780028F8D102E0641CCC
:1022400000F009F814B120780028F8D1BDE87040FA
:102250000A20AFF3008008B569468DF8000003201E
:10226000ABBE08BD2DE9F041074690460E4600255D
:102270001020FFF769FE04000BD0C4F80C80C4E9FD
:102280000176FFF7D1FE0168216004602846BDE8B1
:10229000F0810125FAE72DE9F0410646FFF7C4FE7B
:1022A000804613E026B1E068B04201D025460EE03A
:1022B00020682860D4E90101D8F8007088472046DA
:1022C000FFF704FFD8F80000B84200D045462C685C
:1022D000002CE7D1BDE8F0810246536810699842AE
:1022E00001D30020704772B6D2E90130984205D17F
:1022F0000120906010680078087005E09368581C11
:1023000090601068C05C08701069401C106162B673
:102310000120E7E702461069A0B172B65368D068A1
:10232000984204D10120D0601068017004E0D368A5
:10233000581CD0601068C1541069401E106162B60C
:10234000012070470020FCE772B600218160C16067
:10235000416801610121416162B6704742600160DC
:102360004368036170470021016041608160C16082
:10237000016101214161704770470000A4230008FA
:10238000000000204C02000028010008642500081D
:102390004C020020840B000084010008D3EAFFFFF8
:1023A00055FBFFFF4113811C1B08C90413031D1BB0
:1023B000083D041A77041AA9041ADB04130D1E1B26
:1023C0000847041A81041ABB0413E1141B08ED0426
:1023D0001AF9041305151B0811041A1D041A2904FF
:1023E0001A35041A41041A4D041A59041A65041ABC
:1023F00071041A7D041A89041A95041AA1041AADED
:10240000041AB9041AC5041AD1041ADD041AE9041D
:102410001AF5041B01167419041A19041A25041A52
:1024200031041A3D041A49041A55041A61041A6D3C
:10243000041A79041A85041A91041A9D041AA9042D
:102440001AB5041AC1041ACD041AD9041AE5041ADB
:10245000F1041AFD041309171B0815041A21041AA4
:102460002D041A39041A45041A51041A5D041A6914
:10247000041A79041A89041A99041AA9041AB904C5
:102480001AC9041AD9041AE9041AF9041B09189C78
:1024900019041A29041A39041A49041A59041A6920
:1024A000041A79041A89041A99041AA9041AB90495
:1024B0001AD1041AE1041AF1041301191B081104BA
:1024C0001A21041A31041A41041A51041A61041A17
:1024D00071041A81041A91041AA1041AB1041AC1D0
:1024E000041AD1041AE1041AF1041B011A40190458
:1024F0001A21041A31041A41041A51041A61041AE7
:1025000071041A81041A91041AA1041AB1041AC19F
:10251000041AD1041AE1041AF1041B011B40190426
:102520001A21041A31041A41041A51041A61041AB6
:1025300071041A81041A91041AA1041AB1041AC16F
:10254000041AD1041AE1041AF1041B011C401904F5
:102550001A21041A31041A41041A51041A61041A86
:042560007104000002
:04000005080000ED02
:00000001FF
